:100000000C9434000C943E000C943E000C943E0082
:100010000C943E000C943E000C943E000C943E0068
:100020000C943E000C943E000C943E000C943E0058
:100030000C943E000C943E000C943E000C943E0048
:100040000C943E000C943E000C943E000C943E0038
:100050000C943E000C943E000C943E000C943E0028
:100060000C943E000C943E0011241FBECFEFD8E04C
:10007000DEBFCDBF0E9440000C946F000C940000C6
:10008000DF93CF9300D0CDB7DEB71A821982E4E2B6
:10009000F0E080E280831A82198208C0E5E2F0E095
:1000A000108289819A8101969A83898389819A81B4
:1000B00023EC8035920790F31A82198209C0E5E299
:1000C000F0E080E2808389819A8101969A83898316
:1000D00089819A8123EC8035920788F3DCCFF894EC
:0200E000FFCF50
:00000001FF
