:1000000033C00000000000000000000000000000FD
:1000100000000000000000000000000000000000E0
:1000200000000000000000000000000000000000D0
:1000300000000000000000000000000000000000C0
:1000400000000000000000000000000000000000B0
:10005000000000003EC000000000000000000000A2
:100060000000000000000000F89408E00EBF0FEF51
:100070000DBF04D009D023D07894FFCF0FEF04B97F
:100080002D9800E007B9089502EA009380000BE183
:100090000093810013E108E8109387000093860025
:1000A00011E005E41093890000938800219A11E083
:1000B00009EA10938B0000938A00229A089500E6C3
:1000C00000937C000AEE00937A0000E000937B002E
:1000D00008950FB70F931D9A909179000AEF00933E
:1000E0007A00A6E69A9F1394C12DE12D41E059EACA
:1000F00060E07C2F571B460B40938900509388008B
:10010000219A41E055E460E0792F570F461F409354
:0E0110008B0050938A00229A0F910FBF189512
:00000001FF
