:1000000033C00000000000000000000000000000FD
:1000100000000000000000000000000000000000E0
:1000200000000000000000000000000000000000D0
:1000300000000000000000000000000000000000C0
:1000400000000000000000000000000000000000B0
:10005000000000003EC000000000000000000000A2
:100060000000000000000000F89408E00EBF0FEF51
:100070000DBF10D002D07894FFCF00E400937C0035
:100080000FEE00937A0000E000937B0001E0009304
:100090007E000895F1E0E9EAD1E0C5E402EA0093C8
:1000A00080000BE10093810013E108E810938700C2
:1000B000009386001D2F0C2F109389000093880059
:1000C000219A1F2F0E2F10938B0000938A00229AE3
:1000D00008950FB70F93F9E7E8E7D9E7C8E71D2FB1
:1000E0000C2F1093890000938800219A1F2F0E2F48
:1000F00010938B0000938A00229A00E000937A000C
:060100000F910FBF1895DE
:00000001FF
