:1000000033C0000064C000000000000000000000D9
:1000100000000000000000000000000000000000E0
:1000200000000000000000000000000000000000D0
:1000300000000000000000000000000000000000C0
:1000400000000000000000000000000000000000B0
:1000500000000000000000000000000000000000A0
:100060000000000000000000F89408E00EBF0FEF51
:100070000DBF22D002D07894FFCFF1E0E9EAD1E0C1
:10008000C5E402EA009380000BE10093810013E1D4
:1000900008E810938700009386001D2F0C2F109303
:1000A000890000938800219A1F2F0E2F10938B0038
:1000B00000938A00229A089500E00AB900E204B988
:1000C0002D9803E00093690001E00DBB08950FB780
:1000D0000F931D9AF1E0E5E4D1E0C9EA1D2F0C2F42
:1000E0001093890000938800219A1F2F0E2F1093E0
:0E00F0008B0000938A00229A0F910FBF189583
:00000001FF
