:1000000000C0000000000000000000000000000030
:1000100000000000000000000000000000000000E0
:1000200000000000000000000000000000000000D0
:1000300000000000000000000000000000000000C0
:1000400000000000000000000000000000000000B0
:1000500000000000000000000000000000000000A0
:100060000000000000000000F89408E00EBF0FEF51
:100070000DBF00D0789400C000E400937C000FEE28
:1000800000937A0000E000937B000895F1E0E5E43E
:10009000D1E0C9EA02EA009380000BE100938100FD
:1000A00013E108E810938700009386001D2F0C2FA2
:1000B0001093890000938800219A1F2F0E2F109310
:1000C0008B0000938A00229A08950FB70F93F1E0F6
:1000D000E5E4D1E0C9EA1D2F0C2F109389000093AD
:1000E0008800219A1F2F0E2F10938B0000938A00F7
:0800F000229A0F910FBF189531
:00000001FF
