:1000000033C0000044C000000000000000000000F9
:1000100000000000000000000000000000000000E0
:1000200000000000000000000000000000000000D0
:1000300000000000000000000000000000000000C0
:1000400000000000000000000000000000000000B0
:1000500000000000000000000000000000000000A0
:100060000000000000000000F89408E00EBF0FEF51
:100070000DBF02D07894FFCF00E00AB900E204B9C6
:100080002D9803E00093690001E00DBB08950FB7C0
:0A0090000F931D9A0F910FBF1895F2
:00000001FF
