:1000000033C00000000000000000000000000000FD
:1000100000000000000000000000000000000000E0
:1000200000000000000000000000000000000000D0
:1000300000000000000000000000000000000000C0
:1000400000000000000000000000000000000000B0
:100050000000000042C0000000000000000000009E
:100060000000000000000000F89408E00EBF0FEF51
:100070000DBF04D02CD021D07894FFCFF1E0E9EA75
:10008000D1E0C5E402EA009380000BE10093810017
:1000900013E108E810938700009386001D2F0C2FB2
:1000A0001093890000938800219A1F2F0E2F109320
:1000B0008B0000938A00229A089500E400937C004C
:1000C0000AEE00937A0000E000937B0008950FEFA2
:1000D00004B92D9800E007B908950FB70F931D9A42
:1000E000E0917800F0917900C0917800D09179008A
:1000F0000AEF00937A001D2F0C2F109389000093B4
:100100008800219A1F2F0E2F10938B0000938A00D6
:08011000229A0F910FBF189510
:00000001FF
